:020000040800F2
:10000000900500209D010008AF1B00085317000851
:10001000AD1B0008E3080008E91F0008000000000D
:10002000000000000000000000000000D31B0008DA
:10003000E508000800000000D11B0008D51B0008DF
:10004000B7010008B7010008B7010008B7010008B0
:10005000B7010008B7010008B7010008B7010008A0
:10006000B7010008B7010008B7010008B701000890
:10007000B7010008B7010008B7010008B701000880
:10008000B7010008B7010008B7010008B701000870
:10009000B7010008B7010008B7010008B701000860
:1000A000B7010008B7010008B7010008B701000850
:1000B000B7010008B7010008B7010008B701000840
:1000C000B7010008B7010008B7010008B701000830
:1000D000B7010008B7010008B7010008B701000820
:1000E000B7010008B7010008B7010008B701000810
:1000F000B7010008B7010008B7010008B701000800
:10010000B7010008B7010008B7010008B7010008EF
:10011000B7010008B7010008B7010008B7010008DF
:10012000B7010008B7010008B7010008B7010008CF
:10013000B7010008B7010008B7010008B7010008BF
:10014000B7010008B7010008B7010008B7010008AF
:10015000B7010008B7010008B7010008B70100089F
:10016000B7010008B7010008B7010008B70100088F
:10017000B7010008B7010008B7010008000000003F
:10018000B7010008B7010008DFF80CD000F034FB1D
:1001900000480047B1380008900500200648804715
:1001A00006480047FEE7FEE7FEE7FEE7FEE7FEE75C
:1001B000FEE7FEE7FEE7FEE7851C00088901000870
:1001C0002DE9F05F0546002092469B46884606468C
:1001D000814640241BE0284641464746224600F01F
:1001E00009F953465A46C01A914110D31146184690
:1001F000224600F0F0F82D1A67EB01084F46224620
:100200000120002100F0E7F817EB00094E41201E05
:10021000A4F10104DFDC484631462A464346BDE8E6
:10022000F09FD2B201E000F8012B491EFBD27047CB
:100230000022F6E710B513460A4604461946FFF7B2
:10024000F0FF204610BD2DE9FE4F81EA030404F0C3
:10025000004421F0004100944FF0000B23F00043D4
:1002600050EA01045ED052EA03045BD0C3F30A549F
:10027000C1F30A552C44A4F2F3340194A0FB0254B8
:10028000C1F3130141F48011C3F3130343F480134A
:1002900001FB024400FB034E840A970A44EA81549E
:1002A00047EA8357A4FB076802958D0A05FB07857B
:1002B0004FEA932C04FB0C542705029D4FEA065885
:1002C00047EA1637B5EB08056EEB070C870E920E62
:1002D00047EA811742EA8312A7FB0201B6EB0B0142
:1002E00064EB00042B0D43EA0C335E1844EB1C5006
:1002F000DA465146E7FB0201C5F313044FEA0B331C
:1003000043EA14534FEA0432019C43EA0603A4F182
:100310000C040294009CCDE900B400F0C1F803B0D5
:10032000BDE8F08F00200146F9E70EB5C10F80EA65
:10033000E0700844CA07002140F233438DE80E0004
:100340000A460B4600F0ACF803B000BD00F00042D6
:1003500030F000400AD0C10D01F56071C0F3160005
:1003600042EA0151C208400711437047002001468C
:10037000704701F0004330B421F0004150EA01021F
:1003800006D00A0DA2F56072C1F31301002A02DC47
:1003900030BC00207047440F44EAC104C100E0189B
:1003A00030BC00EBC25000F035B830B50B4601460A
:1003B00000202022012409E021FA02F59D4205D304
:1003C00003FA02F5491B04FA02F52844151EA2F1AE
:1003D0000102F1DC30BD202A04DB203A00FA02F1F0
:1003E000002070479140C2F1200320FA03F3194323
:1003F00090407047202A04DB203A21FA02F00021C5
:10040000704721FA02F3D040C2F120029140084324
:10041000194670470029A8BF7047401C490008BF13
:1004200020F00100704710B4B0FA80FC00FA0CF024
:1004300050EA010404BF10BC704749B1CCF120045C
:1004400021FA04F411FA0CF118BF012121430843E9
:10045000A3EB0C01CB1D4FEA00614FEA102042BF15
:10046000002010BC704700EBC35010440029A4BF0B
:1004700010BC7047401C490008BF20F0010010BCB0
:10048000704710B5141E73F1000408DA401C41F1E6
:10049000000192185B411A4301D120F0010010BD08
:1004A0002DE9F04D92469B4611B1B1FA81F202E07E
:1004B000B0FA80F220329046FFF78DFF04460F46D7
:1004C00040EA0A0041EA0B0153465A46084313D05A
:1004D000114653EA010019D0C8F140025046FFF717
:1004E00089FF05460E46504659464246FFF773FFC0
:1004F000084305D0012004E020463946BDE8F08DD0
:100500000020054346EAE0762C4337430A9863050A
:10051000E40AA0EB08000022FD0A44EA47540A302E
:1005200002D500200146E9E7010510196941DDE91E
:10053000084500196941BDE8F04DA2E72DE9FE4FDD
:10054000804681EA0300C00F0C46009021F0004174
:1005500023F00045B8EB0200A94105D240462146F0
:1005600090461C460B46024623F00040104347D0FD
:10057000270DC7F30A00C3F30A510290401A0190F5
:1005800040286BDAC3F3130040F4801B00989246B6
:1005900020B10023D2EB030A63EB0B0B0198594601
:1005A000C0F140025046FFF716FF06460D46504682
:1005B0005946019A00F032F910EB0800614100241D
:1005C00087EA115284EAE7731A4340D0009A62B373
:1005D000019A012A4FEA075215DC001B61EB020168
:1005E0004FF0004202EA0752CDE90042001C41F5FB
:1005F000801132462B46FFF753FF03B0BDE8F08F62
:1006000040462146F9E7001B61EB0201001C41F561
:10061000801300185B412018A2F5001747EB030177
:1006200040EAD570B6196D4111E06D084FEA360603
:1006300045EAC0754FEA0752001B61EB0201001C3E
:1006400041F5801149084FEA300000195141324606
:100650002B4603B0BDE8F04FFFF713BF009801220F
:1006600040000023D0EB020263EBE07300982146C8
:100670004FEAE074B8EB000061EB0401E9E783F0B6
:1006800000435BE781F0004158E72DE9F04D81EA36
:10069000030404F0004B21F0004514464FF0000A1B
:1006A00023F0004150EA050220D054EA01021DD097
:1006B000C5F30A570246C5F31303C1F31300C1F390
:1006C0000A5640F4801543F48013A7EB0608101B6C
:1006D000D64608F2FD3873EB050002D308F1010895
:1006E00001E092185B41B8F1000F03DA00200146E7
:1006F000BDE8F08D00204FF48011064684460EE0E0
:10070000171B73EB050705D3121B63EB05030643A9
:100710004CEA010C49084FEA300092185B4150EA5C
:100720000107EDD152EA030012D082EA040083EA05
:100730000501084305D0101BAB4106D2012200235E
:1007400006E000224FF0004302E06FF00102531078
:100750001AEB06004CEB085110EB0A0041EB0B01C1
:10076000BDE8F04DFFF78DBE70B521F000430343A7
:100770000CD0C1F30A550024D5EB040564EB040347
:10078000D617AD1AB34102DB0020014670BD201818
:1007900041EB025170BDC1F30A52C1F3130140F2A3
:1007A000FF3341F480119A4202DA0020014670477B
:1007B00040F233439A42A2F2334202DC5242FFF744
:1007C00019BEFFF708BE000030B5041E71F1000429
:1007D00004DB4FF00044404264EB0101141E73F14E
:1007E000000405DB1C464FF00043524263EB040358
:1007F000994208BF904230BD064C074D06E0E068C4
:1008000040F0010394E8070098471034AC42F6D357
:10081000FFF7BEFC583D0008783D0008202A06DBA3
:10082000CB17203A41FA02F043EAE07306E041FABE
:1008300002F3D040C2F120029140084319467047AC
:100840002DE9F04D00231A461B1A8A4103DB0020D4
:100850000146BDE8F08DC1F30A52C1F3130141F422
:1008600080154FF0000BD10702D100186D41521EC8
:100870000027044640F2FF11384601EB620A3E466B
:100880008046024600204FF48011FFF7B3FDC219E5
:100890007141BB1846EB0100B4EB030C75EB000C87
:1008A00004D3E41A65EB000517460E46241908F137
:1008B00001006D4180463428E3DDF91946EB06005E
:1008C000091BA84103D24FF0FF32134601E000227A
:1008D00013461BEB070046EB0A51BDE8F04DFFF74E
:1008E000D0BDFEE77047000070B5044600F0E6F8A2
:1008F0000546601C02D004480078044400F0DEF88D
:10090000401BA042FAD370BD480000202DE9F84FEB
:10091000DFF87CB100224FF001084FF0030A4FF0DE
:100920000F090BF1040E00BF0B6808FA02F4234014
:10093000A3426ED14D68022D01D0122D0ED1D508E3
:1009400000EB850CDCF820505607F70E09FA07F685
:10095000B5430E69BE402E43CCF8206006685500B2
:100960000F790AFA05FC07F0030726EA0C06AF40E8
:10097000374307604E68012E05D0022E03D0112E9A
:1009800001D0122E0ED18668CF6826EA0C06AF4041
:10099000374387604668A6430C79C4F3001494403B
:1009A00034434460C6688C6826EA0C06AC40344385
:1009B000C4604C68E40065D5364C256845F4804534
:1009C0002560246822F0030504F480440094324C2E
:1009D0002E19D6F8084895072F0F09FA07F5AC43EA
:1009E0002E4DA84201D1002524E02D4DA84201D171
:1009F00001251FE02B4DA84201D102251AE02A4D06
:100A0000A84201D1032515E0284DA84202D10425B2
:100A100010E037E0264DA84201D105250AE0254D1A
:100A2000A84201D1062505E0234DA84201D10725A2
:100A300000E00825BD402543C6F80858DBF8004013
:100A40005D464E689C43F60300D51C432C60DEF8DF
:100A5000004075464E689C43B60300D51C432C608D
:100A60000B4D08352C684E689C43F60200D51C439C
:100A70002C60074D0C352C684E689C43B60200D59F
:100A80001C432C60521C102AFFF44EAFBDE8F88FB7
:100A9000003C014044380240003001400000024068
:100AA0000004024000080240000C02400010024016
:100AB0000014024000180240001C024001488068F7
:100AC000704700004800002070B5040004D094F87E
:100AD0003D00002510B106E0012070BD84F83C50B7
:100AE000204600F005FA242084F83D0020680168C3
:100AF00021F00101016000F075FB33492268B0FB71
:100B0000F1F15160314A6368934206D94FF496730C
:100B100059434FF47A73B1FBF3F12368491C19620E
:100B2000616891420BD84900B0FBF1F2C2F30B02AD
:100B3000042A01D2042019E0B0FBF1F016E0A3680A
:100B40009BB301EBC10202EB0112B0FBF2F242F4E3
:100B50008042120530D04BB301EBC10202EB011110
:100B6000B0FBF1F040F4804040F400402168C861DF
:100B7000D4E90701084321680860D4E90310084359
:100B800021688860D4E9050108432168C8602068AD
:100B9000016841F0010101602564202084F83D00D6
:100BA000256384F83E50002070BD00E006E001EBB4
:100BB0004102B0FBF2F2CCE70120D7E701EB4101A3
:100BC000B0FBF1F0D0E7000040420F00A08601002A
:100BD0002DE9F84F1F4690468A460446DDF82890D6
:100BE000FFF76CFF054694F83D0020286FD11923CC
:100BF00001226E492046009500F0A1FE0028F5D1A3
:100C000094F83C00012862D0012084F83C00206860
:100C10000168C90703D1016841F001010160206842
:100C2000016821F400610160222084F83D00102059
:100C300084F83E0000262664C4F8248067855C485A
:100C4000E062608D20852B464A465146204600F0E2
:100C500095FD28B1206C84F83C60042841D04DE01B
:100C6000208D544F68B1012814D0022820680168F3
:100C700016D041F48061016020684169806900906C
:100C800085E02068416981690091016841F4007143
:100C900001607CE02068016821F480610160F0E778
:100CA00021F4806101602068016841F40061E2E79D
:100CB000032849D801280BD0022817D04B46002220
:100CC00039462046009500F03AFEB8B92AE06AE0BD
:100CD0002A464946204600F0A7FE28B1206C20286D
:100CE0000CD00120BDE8F88F206845E04B4600227B
:100CF00039462046009500F022FE08B10320F1E7B6
:100D00002068016841F40071016020680169606A2F
:100D1000421C62620170208D401E2085608D401E45
:100D20006085E1E72068016821F480610160206846
:100D30000169606A421C62620170208D401E20853C
:100D4000608D401E6085D1E72A464946204600F066
:100D50006BFE0028C2D120680269606A411C616292
:100D60000270208D401E2085608D401E60852068A9
:100D70004169C94349070AD40169606A421C626239
:100D80000170208D401E2085608D401E6085208D65
:100D900000288DD1202084F83D0084F83E6084F83E
:100DA0003C6000209EE702209CE70000020010004B
:100DB0000000FFFF040001002DE9F84F1F46904698
:100DC0008A460446DDF82890FFF778FE064694F838
:100DD0003D0020287ED11923012243492046009658
:100DE00000F0ADFD00287DD194F83C00012879D0B9
:100DF000012084F83C0020680168C90703D101681C
:100E000041F0010101602068016821F40061016086
:100E1000212084F83D00102084F83E000025256440
:100E2000C4F8248067853148E062608D20853346B0
:100E30004A465146204600F011FD28B1206C84F846
:100E40003C5004284CD00DE0206841698069009036
:100E500030E032464946204600F017FE28B1206CAB
:100E6000042838D00320BDE8F88F606A411C616215
:100E7000216800780861608D401E6085208D401ECD
:100E800080B2208521684A69D24352070BD450B101
:100E9000606A421C626200780861608D401E608555
:100EA000208D401E208532464946204600F020FD18
:100EB0000028D4D1208D0028CBD154F83D0B0168F7
:100EC00041F400710160202004F81E09E577657780
:100ED0000020C8E706E02068016841F40071016065
:100EE0000120C0E70220BEE7020010000000FFFF63
:100EF00000B500680E4987B0884216D1C020009026
:100F000012200190012002900320039004200490FD
:100F100069460848FFF7FAFC0748016841F40011E8
:100F20000160006800F40010059007B000BD0000EB
:100F300000540040000402404038024002488168EA
:100F40000278114481607047480000200B4810B5BA
:100F5000016841F400710160016841F48061016041
:100F6000016841F480710160032000F08BF80020DB
:100F700000F006F800F024F8002010BD003C02400C
:100F800070B50D4D04464FF47A712878B1FBF0F03E
:100F90000A490968B1FBF0F000F00FFB48B9102CCA
:100FA00007D200222146501E00F04CF800206C6051
:100FB00070BD012070BD00004800002054000020DA
:100FC0001F4808B5016841F480410160006800F4E1
:100FD000804000901A48001F016841F08051016074
:100FE000006800F080500090032000F04BF80022D1
:100FF00011466FF00B0000F025F8002211466FF04B
:101000000A0000F01FF8002211466FF0090000F0FE
:1010100019F800221146501F00F014F80022114662
:10102000101F00F00FF800221146901E00F00AF881
:101030000022BDE808401146501E00F003B8000031
:1010400044380240F0B40E4B1B680C46C3F3022335
:10105000C3F10705042D00D90425191D072901D264
:10106000002300E0DB1E012606FA05F1491E21409F
:1010700099409E40761E16403143F0BC00F098BD6A
:101080000CED00E0064900F0070208684FF6FF0388
:10109000184040EA0220034A1043086070470000ED
:1010A0000CED00E00000FA052DE9F0470E460500C2
:1010B00065D0DFF81481D8F80000F7B200F00F0017
:1010C000B04207D288F80070D8F8000000F00F0096
:1010D000B04254D128683D4C810712D5400703D552
:1010E000206840F4E05020602878000703D520688D
:1010F00040F4604020602068A96820F0F0000843B8
:1011000020602878C0072DD0304968680839012848
:1011100012D0022813D0032811D0096889070029AA
:101120002DDA216821F0030101432160FFF7C6FC9D
:10113000814641F2883A0EE009688903EFE70968C1
:101140008901ECE7FFF7BAFCA0EB0901514502D990
:101150000320BDE8F0872068696800F00C00B0EB60
:10116000810FEFD1D8F80010404601F00F01B142D5
:1011700007D90770006800F00F00B04201D00120CD
:10118000E7E72878400705D52068E96820F4E050B3
:10119000084320602878000706D52068296920F4D4
:1011A000604040EAC100206000F03CF82168084A35
:1011B000C1F30311515CC840064908600020FFF7E5
:1011C000DFFE0020C5E70000003C02400838024076
:1011D000AA3C000854000020014800687047000045
:1011E000540000200448054900680968044AC1F316
:1011F0008221515CC84070475400002008380240EA
:10120000BA3C00080448054900680968044AC1F36B
:101210004231515CC84070475400002008380240F9
:10122000BA3C0008154810B5006810F00C021448CC
:1012300013D04110042A0FD0082A0ED10F4C241FBE
:101240002268236802F03F025B0207D52068C0F3E2
:101250008810A0FB010106E0084610BD2168C1F31B
:101260008811A1FB00010023FEF7AAFF2168C1F34A
:101270000141491C4900B0FBF1F010BD08380240A3
:101280000024F4002DE9F84F050076D02878DFF827
:10129000F8B2BE4CC00749D0DBF800105846C1F385
:1012A0008101012908D00068C0F3810002280AD119
:1012B000201D0068400206D52068800336D5686886
:1012C0000028E2D032E06868B0F5803F10D0B0F579
:1012D000A02F206810D020F480302060206820F4F7
:1012E000802020606868A0B1FFF7E8FB06460CE0AC
:1012F000206840F48030F4E740F480202060F7E775
:10130000FFF7DCFB801B642873D820688003F7D5C7
:101310000CE0FFF7D3FB064605E000BFFFF7CEFB6E
:10132000801B6428F0D820688003F7D42878DFF881
:10133000608280074FF000093ED5DBF80010584668
:1013400011F00C0F09D00068C0F3810002280BD106
:101350008D48001F0068400206D42068800715D51C
:10136000E868012809D111E0E868B8B10120C8F89F
:101370000000FFF7A3FB064605E002E1FFF79EFB36
:10138000801B0228C0D820688007F7D5206829690B
:1013900020F0F80040EAC10020600DE0C8F800909D
:1013A000FFF78CFB064604E0FFF788FB801B022852
:1013B0001FD820688007F7D42878000722D5724EFE
:1013C000744869696C3671B101210160FFF776FBE1
:1013D000074604E0FFF772FBC01B022809D83068FB
:1013E0008007F7D50EE0C0F80090FFF767FB0746CF
:1013F00005E083E0FFF762FBC01B02287ED830685F
:101400008007F7D42878400768D5DFF87CA100274B
:101410000AF1380ADAF80000C0000BD4DAF800103C
:1014200041F08051CAF80010DAF80000012700F0FE
:1014300080500090584E3068C00510D4306840F499
:1014400080703060FFF73AFB009005E0FFF736FB55
:101450000099401A022851D83068C005F6D54A4E86
:10146000A868683601280FD00528306810D020F011
:1014700001003060306820F004003060A868B8B126
:10148000FFF71CFB00900FE0306840F00100F4E72C
:1014900040F004003060F7E7FFF710FB0099411AB5
:1014A00041F28830814264D830688007F4D50EE07C
:1014B000FFF704FB009007E0FFF700FB0099411ADB
:1014C00041F28830814254D830688007F4D42FB17B
:1014D000DAF8001021F08051CAF80010A869C0B3F2
:1014E000DBF80010C1F3810102294AD002284846E6
:1014F00007D0C8F86000FFF7E1FA00E039E00546E0
:101500003AE04746C8F86000FFF7D8FA064604E01C
:10151000FFF7D4FA801B02282BD820688001F7D46B
:10152000D5E907010843A96A1C4A490802EB0141B1
:101530006A6A41EA8211084395F82C1040EA016179
:101540001148001F016001203866FFF7B7FA054611
:1015500005E014E0FFF7B2FA401B022809D8206822
:101560008001F7D50BE000BFFFF7A8FA401B022867
:1015700002D90320BDE8F88F20688001F4D4002050
:10158000F8E70120F6E70000083802400038024082
:1015900000004742800E4742007000400000FFFFFD
:1015A0004FF0E0210428086903D020F0040008610E
:1015B000704740F00400FAE7704710B5401EB0F1E4
:1015C000807F01D3012010BD4FF0E02460610F2126
:1015D000601700F0EDFA0020A061072020610020D4
:1015E00010BD10B5FFF7E8FF10BD70B5040004D0C2
:1015F00094F83900002510B106E0012070BD84F890
:101600003850204600F022F8242084F83900206861
:10161000C16821F40051C160204600F05DFB2068E4
:10162000016921F4904101612068416921F02A019A
:1016300041612068C16841F40051C160E563202028
:1016400084F8390084F83A00002070BD00B50068C5
:101650000E4987B0884217D10D48016841F010014A
:1016600001600068694600F0100005904FF4C0600A
:101670000090022001900120029003200390072097
:1016800004900448FFF742F907B000BD0010014084
:1016900044380240000002402DE9F843044690F827
:1016A00039001F4616460D46202850D1A5B19EB1DF
:1016B00094F8380001284AD0012084F838004FF00F
:1016C0000008C4F83C80212084F83900FFF7F6F9BF
:1016D000A6848146E68426E00120BDE8F883E08CFC
:1016E000401EE084A0684B46B0F5805F4FF00002DA
:1016F0004FF080012046009703D000F043FCE8B98A
:101700000DE000F03FFCC8B928882168C0F308004C
:101710004860206908B16D1C05E0AD1C03E021683C
:1017200015F8010B4860E08C0028D8D14B46002208
:1017300040212046009700F025FC08B10320CCE7AB
:10174000202084F8390084F838800020C5E7022082
:10175000C3E7FEE701684A69D24352050CD46FF42F
:1017600080624A6104210164002140F8301F202278
:101770004273017301207047002070472DE9F84F34
:101780000446C06A1E4692460D4621680A6842F425
:1017900080620A60042807D0012805D010F5803F38
:1017A00002D0206B112804D12068016841F48071B7
:1017B00001604FF001185346002241462046009632
:1017C00000F0BDF8B8BB206908F10109B0F5804F01
:1017D00012D00620216800EAD51747F0F000086112
:1017E0003346524608F10701204600F0D9F838B1D7
:1017F000206C04282FD01EE0E8B240F001001FE06A
:101800002168E8B20861334652464946204600F056
:10181000C7F80028ECD1206841698169009101680E
:1018200041F48071016053460022414620460096F3
:1018300000F085F810B10320BDE8F88F47F0F10003
:1018400021680861334652464946204600F0A8F810
:101850000028CDD1F0E70120EEE70000F8B50446FE
:10186000C06A1E460D461746042807D0012805D039
:1018700010F5803F02D0206B122804D12068016847
:1018800041F480710160134600224FF0011120469F
:10189000009600F054F8A0B92069B0F5804F12D03E
:1018A0000620216800EAD51040F0F00008613346B8
:1018B0003A460E49204600F073F838B1206C0428EF
:1018C00011D00320F8BD05F0FE0000E0E8B2216869
:1018D0000861064933463A46891F204600F060F801
:1018E0000028EBD1F8BD0120F8BD00000800010080
:1018F00070B516460D4604461AE02046FFF72AFF4B
:1019000008B1012070BD681C12D025B1FFF7D6F8D0
:10191000801BA8420CD954F8400F40F0200044F836
:10192000100900202060202161732073032070BD06
:1019300020684069C0434007DFD4002070BD2DE916
:10194000F0471E4690460D460446C1F30747DDF8B2
:10195000209012E0701C10D02EB1FFF7AFF8A0EB72
:101960000900B04209D9002044F8300F20216173EA
:10197000A07320730320BDE8F0872068012F0AD0F0
:10198000806925EA00000004000C06D000214145D2
:10199000E0D00020EFE74069F3E70121F7E700001E
:1019A0002DE9F0479A4691460D46044600264FF031
:1019B0002008C1F307472AE020684069C04340057A
:1019C00012D42068016841F40071016021686FF44D
:1019D0008060486104202064266384F83D8084F898
:1019E0003C600120BDE8F087B9F1FF3F0FD0B9F1AD
:1019F000000F05D0FFF762F8A0EB0A01494506D9B0
:101A000044F8306F84F80D8026730320EAE72068DD
:101A1000012F07D0D0F8180025EA00000004000CC0
:101A2000E0D0C9E74069F7E72DE9F041002590468D
:101A30000E460446202721E04069C043C0060CD46E
:101A400021686FF0100048612564256384F83D70BB
:101A500084F83C500120BDE8F0812EB1FFF72EF84C
:101A6000A0EB0800B04209D954F8400F40F0200024
:101A700044F80409677025700320ECE72068416989
:101A8000C9434906D8D40020E5E770B516460D468F
:101A900004461AE02046FFF75DFE08B1012070BD44
:101AA000681C12D025B1FFF709F8801BA8420CD999
:101AB00054F8400F40F0200044F810090020206046
:101AC000202161732073032070BD20684069C043EA
:101AD0000006DFD4002070BD7CB500208DF8040026
:101AE0004FF4FA75642405E009A000F07FFA284657
:101AF000FEF7FAFE012301AA96210A480094FFF797
:101B00005BF90028F0D16420FEF7EEFE01207CBDD9
:101B1000494D55206E6F7420617661696C61626C0D
:101B2000650D0A0078000020114808B5016841F0F1
:101B300004010160016801F004010091016841F0B5
:101B400080010160016801F080010091016841F0AD
:101B500001010160016801F001010091016841F09B
:101B600002010160006800F00200009008BD000062
:101B7000303802400B4810B5094901600A494160FC
:101B800000214FF480428160C0E90312416181610C
:101B9000C1610162FEF798FF002800D0FEE710BD8A
:101BA0000054004078000020801A0600FEE77047CD
:101BB0000907090E002806DA00F00F0000F1E02006
:101BC00080F8141D704700F1E02080F80014704781
:101BD0007047704710B5FFF7B1F9BDE81040FFF747
:101BE00000BD000030B5254893B00025016841F0E4
:101BF00080510160006800F0805011902048016819
:101C000041F4804101600068022400F4804011909A
:101C10000120039010200490009406940820CDE940
:101C20000750A820CDE9090404200B906846FFF76F
:101C300029FB00B1FEE70CA90F2081E831004FF429
:101C4000A0500F904FF48050109005210CA8FFF782
:101C50002BFA00B1FEE7FFF7BFFA4FF47A71B0FB41
:101C6000F1F0FFF7AAFC0420FFF79AFC00221146CE
:101C7000501EFFF7E7F913B030BD000040380240B6
:101C8000007000401048016841F4700101600F4885
:101C9000016841F0010101600C4A00210832116025
:101CA00002680B4B1A400260031D0A4A1A60026860
:101CB00022F48022026005480C3001600249580677
:101CC000803908607047000088ED00E0003802406D
:101CD000FFFFF6FE103000242DE9F04104460068B5
:101CE000016921F44052E168114301612168C8682B
:101CF00049F20C6290432369A268E5691A4363695B
:101D00002B431A430243CA602168486920F4407299
:101D1000A06910434861E1696425B1F5004F974817
:101D2000974A21684FF032083FD0914201D081425A
:101D30007CD1FFF767FA00EBC00101EB001061688E
:101D40008900B0FBF1F6FFF75DFA00EBC00101EB93
:101D5000001061688900B0FBF1F0B0FBF5F06FF0A6
:101D60001801484306EB800108EB0110B0FBF5F0C9
:101D700000F0F006FFF746FA00EBC00101EB00109F
:101D800061688900B0FBF1F0B0FBF5F006EB0016DE
:101D9000FFF738FA00EBC00101EB00106168890021
:101DA000B0FBF1F7FFF72EFAD2E0914201D0814269
:101DB0003DD1FFF727FA00EBC00101EB001061688D
:101DC0004900B0FBF1F0B0FBF5F00601FFF71AFA9D
:101DD00000EBC00101EB001061684900B0FBF1F7B6
:101DE000FFF710FA00EBC00101EB00106168490039
:101DF000B0FBF1F0B0FBF5F06FF01801484307EBD2
:101E0000800108EBC100B0FBF5F000F0F80006EB34
:101E10004006FFF7F7F900EBC00101EB0010616825
:101E20004900B0FBF1F7FFF7EDF93CE055E0FFF7B3
:101E3000D9F900EBC00101EB001061684900B0FB6B
:101E4000F1F0B0FBF5F00601FFF7CCF900EBC001B3
:101E500001EB001061684900B0FBF1F7FFF7C2F930
:101E600000EBC00101EB001061684900B0FBF1F02C
:101E7000B0FBF5F06FF01801484307EB800108EB69
:101E8000C100B0FBF5F000F0F80006EB4006FFF7EC
:101E9000A9F900EBC00101EB001061684900B0FB3B
:101EA000F1F7FFF79FF900EBC00101EB001061684B
:101EB0004900B0FBF1F0B0FBF5F06FF018014843BA
:101EC00007EB800108EBC100B0FBF5F000F0070064
:101ED000216830448860BDE8F081FFF783F900EBAA
:101EE000C00101EB001061688900B0FBF1F6FFF75B
:101EF00079F900EBC00101EB001061688900B0FBCB
:101F0000F1F0B0FBF5F06FF01801484306EB8001EB
:101F100008EB0110B0FBF5F000F0F006FFF762F9F6
:101F200000EBC00101EB001061688900B0FBF1F02B
:101F3000B0FBF5F006EB0016FFF754F900EBC0011B
:101F400001EB001061688900B0FBF1F7FFF74AF977
:101F500000EBC00101EB001061688900B0FBF1F0FB
:101F6000B0FBF5F06FF01801484307EB800108EB78
:101F70000110B0FBF5F000F00F00A9E700140140DC
:101F8000001001402DE9F041984617460E460446E0
:101F9000069D1DE0681C1BD02DB1FEF78FFDA0EB48
:101FA0000800A84214D92068C16821F4D071C1602A
:101FB0002068416921F001014161202084F8390045
:101FC00084F83A00002084F838000320BDE8F0814E
:101FD0002068006836EA000004D00020B842D9D05A
:101FE0000020F3E70120F9E7FEE700000FB4054BFE
:101FF00010B503A9044A029801F006F810BC5DF878
:1020000014FB00000D380008580000200FB4084BE6
:1020100010B504A902AA039800F0F6FF044602A92D
:10202000002001F088FB204610BC5DF814FB000086
:102030003737000803B401984100009850EAC120E6
:1020400018BF04204A0D18BF40F0010040F2FF7293
:10205000B2EB515F08BF40F00200012808BF052025
:1020600002B07047000000002DE9F04D2DED040B8B
:102070002DED0E8B96B0DDE92550279CDDF890A064
:1020800025F0004624F00048BAF1000F14BF0121EA
:10209000002101EB4502FC4953184A1093422AD310
:1020A000002814BF0123002303EB44030B44F7492A
:1020B0008B4220D358EA00019FEDF59B76D0DFF8E4
:1020C000D8B35D4503D1BAF1000F05D188E0BAF16C
:1020D000000F08BF002100D0012101EB450111F5DF
:1020E000001F08D8002814BF0121002101EB440182
:1020F00011F5001F0BD99DED261B9DED240B16B08D
:10210000BDEC0E8B04B0BDE8F04D00F069BE0027B9
:10211000002DBCBFE149884521DAE1498845A8BFC7
:1021200002271CDAC3451ADCDE4901EB28511429C9
:1021300008DDC1F1340220FA02F101FA02F2824212
:102140000DD108E058B9C1F1140228FA02F101FAE0
:1021500002F2424503D101F00101C1F1020756EA42
:102160000A0124D1002C22DA002D18BF022F01D041
:10217000012F0AD0022000F07FFE16B0BDEC0E8BBE
:1021800004B0BDE8F04D00F013BE022000F074FE74
:1021900000F00EFE51EC100B81F0004141EC100BF1
:1021A00016B0BDEC0E8B04B0BDE8F08D18E09FEDCD
:1021B000BEAB9FEDBF8B002871D1B848804522D1BE
:1021C00005F1804010F5801008BFBAF1000F07D06C
:1021D000B3450ADC002CA8BF9DED260BE0DA0DE02C
:1021E000B0EE490AF0EE690ADAE7002C06DA9DED56
:1021F000260B51EC100B81F000416FE0AE487844A3
:1022000090ED000BCCE7D8454DD1002C48DA2EB12B
:1022100086423AD1BAF1000F42D126E0BAF1000F5E
:1022200013D0022000F028FE00F0F6FD8DED020B29
:102230009DED240B8DED000B10EE900A039961F3D8
:102240001E0003909DED020BAAE78DED02AB9DED04
:10225000240B1AEE901A10EE900A8DED000B61F32C
:102260001E0003909DED020B9AE78DED028B9DED14
:10227000240B18EE901A10EE900A8DED000B61F30E
:102280001E0003909DED020B8AE709DA9DED240BF9
:1022900051EC190B53EC102BFEF7F7F91EE020E080
:1022A0009DED240B7CE786421BDAB4F1804F0DD004
:1022B000A4F10050B0F1FF5013D1002D11DB9DEDC2
:1022C000240B51EC100B01F0B9FC07E09DED240B41
:1022D00053EC102B51EC100B00F0C2BC41EC100B76
:1022E0005EE79DED240B51EC100B01F083FABAF17F
:1022F000000FCDE90E0142D19FED710B46B3A6F15F
:10230000E040B0F17F600CD05E4538D1002D00DA9E
:10231000A7B3022F0CBF01204FF0FF30FEF705F8E6
:10232000DCE7002D01DD002C0DDA002D01DD002C95
:102330001FDB002D16DA002C14DB012F08BF9FEDE8
:10234000620B3FF42DAFB0EE4A0AF0EE6A0A27E7BF
:10235000022F18BF002D0CD0012F0AD1002DFFF63F
:102360001FAF06E0002DB8BF002C08DA012F3FF4A4
:1023700017AFB0EE480AF0EE680A11E71BE0012043
:1023800000EBE57050EA070115D0791EB0EE498ADE
:10239000F0EE698A084308BF9FED4D8B4E4800253B
:1023A000804570DD4D494E48884514DDB0420DDB57
:1023B000002C19DB2FE0012000F05EFD16B0BDEC13
:1023C0000E8B04B0BDE8F04D00F016BDB34502DC45
:1023D000002C09DC1FE0864202DA002C1BDA03E045
:1023E0005E452BDD002C16DD022000F045FD00F0DF
:1023F00013FD8DED020B53EC1A2B51EC180BFDF76E
:1024000022FFCDE900010399019861F31E000390BA
:102410009DED020BC4E6022000F02EFD00F00CFD45
:1024200010EE901A18EE900A8DED020B8DED008BD8
:1024300061F31E0003909DED020BB1E69DED0E0BC6
:1024400053EC192B51EC100BFEF719F99FED260BED
:10245000CDE9080153EC102B9DED080B51EC100B4E
:10246000FDF7F1FE9FED221B53EC112BFEF70AF94D
:102470009DED081B53EC112BFDF7E5FE9FED1E1B98
:1024800053EC112B3CE08CE0FFFF1F00FFFF0F001F
:10249000000000000000F03F0000F03F0000F07F6F
:1024A0000000404301FCFFFF000000000000F07F3F
:1024B00000000000000000004E1B000000000000B3
:1024C0000000000000000080000000000000F0FF9D
:1024D000000000000000F0BF0000E0410000F043F9
:1024E000FFFFEF3F00000000000000000000D03FB1
:1024F000555555555555D53F000000000000E03FAB
:10250000FEF7C0F89DED080B41EC1A0B53EC102BB5
:1025100051EC100BFDF797FE53EC1A2BFDF793FED1
:1025200041EC1A0B9FEDFE0B53EC102B9DED080BAD
:1025300051EC100BFDF787FE41EC1B0B9FEDFA0BE6
:1025400051EC1A0B53EC102BFDF77DFE41EC1A0BEE
:102550009FEDF70B53EC102B9DED080B51EC100B7E
:10256000FDF771FE53EC1A2BFEF789F841EC1A0BBC
:1025700051EC1B0B53EC1A2BFDF7E0FF0690CDE955
:1025800006519DED060B53EC1B2B51EC100BFEF787
:1025900076F853EC1A2BFEF775F841EC100B00F0AF
:1025A000A1B90020B6F5801F0EDA9FEDE30B53ECC6
:1025B000102B9DED0E0B51EC100BFDF744FECDE9F9
:1025C0000E016FF034000E4600EB2650A0F2FF37EC
:1025D000C6F31300DA4940F07F6646F04056884261
:1025E000D8BF002408DDD7498142C8BF012403DCDD
:1025F0000024A6F580167F1CD348784400EBC40065
:102600000F9690ED00CB9DED0E0B53EC1C2B51EC77
:10261000100BFEF734F89DED0E0B41EC1B0B53EC49
:102620001C2B51EC100BFDF789FF41EC100B51EC0A
:10263000190B53EC102BFEF728F841EC1D0B51EC55
:102640001B0B53EC1D2BFDF7FEFD41EC1A0BBF4895
:102650008DED10AB7844109590ED000B4FF00050CD
:1026600040EA660000EB84408DED080B00F5002089
:1026700009909DED080B53EC1C2B51EC100BFDF752
:10268000FEFF9DED0E1B53EC112BFDF7FBFF41EC04
:10269000100B53EC102B9DED100B51EC100BFDF7B4
:1026A000D2FD9DED080B41EC1C0B53EC102B9DED66
:1026B000100B51EC100BFDF7C6FD53EC1B2BFDF777
:1026C000E1FF53EC1C2BFDF7DAFF53EC1D2BFDF75C
:1026D000BAFD41EC1C0B53EC1A2B51EC1A0BFDF715
:1026E000B2FD41EC1B0B9A480621B0EE4B0AF0EE0E
:1026F0006B0A784400F0E0FAB0EE401AF0EE601A8F
:10270000B0EE41DAF0EE61DA53EC1B2B51EC1B0B0F
:10271000FDF799FD53EC1D2BFDF795FD9DED100B7D
:1027200041EC1B0B53EC1A2B51EC100BFDF706FF81
:1027300053EC1C2BFDF787FD53EC1B2BFDF7FEFE26
:102740009DED100B41EC1B0B53EC102B51EC100BBF
:10275000FDF779FD41EC1D0B9FED7FEB53EC1E2B3C
:10276000FDF7ECFE53EC1B2BFDF7E8FE0890CDE9DE
:1027700008519DED080B53EC1E2B51EC100BFDF78F
:102780007EFF53EC1D2BFDF77AFF53EC1B2BFDF75F
:1027900079FF9DED080B41EC1D0B53EC102B9DEDCB
:1027A000100B51EC100BFDF74EFD41EC1B0B53ECE5
:1027B0001A2B51EC1D0BFDF746FD9DED080B41EC6E
:1027C0001A0B53EC102B51EC1C0BFDF73CFD53EC9A
:1027D0001A2BFDF7B3FE41EC1A0B51EC1B0B53EC1B
:1027E0001A2BFDF7ABFE0C90CDE90C519DED0C0BB7
:1027F00053EC1B2B51EC100BFDF741FF53EC1A2B44
:10280000FDF740FF41EC1B0B9FED550B53EC102BDC
:102810009DED0C0B51EC100BFDF715FD41EC1A0B67
:102820009FED510B51EC1B0B53EC102BFDF70BFDE7
:1028300041EC1B0B9FED4E0B53EC102B9DED0C0B45
:1028400051EC100BFDF7FFFC53EC1B2BFDF776FE54
:1028500041EC100B4848784400EBC40090ED001B9D
:1028600051EC100B53EC112BFDF768FE41EC1B0BE8
:102870003846FDF75AFDCDE9080153EC1B2B51EC0E
:102880001A0BFDF75BFE41EC100B3C48784400EB63
:10289000C40090ED00CB51EC100B53EC1C2BFDF75A
:1028A0004DFE9DED081B53EC112BFDF747FE0690E6
:1028B000CDE906519DED080B53EC102B9DED060B59
:1028C00051EC100BFDF7DBFE53EC1C2BFDF7D7FE94
:1028D00053EC1A2BFDF7D3FE53EC1B2BFDF7D2FE66
:1028E00041EC100B9DED261B53EC102B8DED001BC6
:1028F00000959DED260B51EC100BFDF7A4FC9DED12
:10290000000B41EC1A0B53EC102B9DED260B51ECF8
:10291000100BFDF7B4FE9DED061B53EC112B2FE0C1
:10292000000000604715F73FFE822B654715F73F13
:1029300044DF5DF80BAE543E000000000000404351
:102940008E9803007AB60B00CA160000F816000035
:102950000216000000000000000000000000084017
:10296000000000E009C7EE3FFD033ADC09C7EE3F77
:10297000F5015B14E02F3EBE8E14000048140000E9
:10298000FDF761FC53EC1A2BFDF7D8FD9DED060B0E
:1029900041EC1A0B53EC102B9DED000B51EC100B7E
:1029A000FDF751FCCDE90C019DED0C0B51EC1A0B20
:1029B00053EC102BFDF7C2FDCDE902010C46AA49EC
:1029C0008C422FDB611A084318D19DED0C0B53ECA0
:1029D000102B9DED020B51EC100BFDF750FE41EC5E
:1029E0001B0B9FEDA30B51EC1A0B53EC102BFDF7B7
:1029F000A5FD53EC1B2BFDF7E7FE2DD2022000F0C6
:102A00003BFA00F009FA10EE901A18EE900A8DEDDC
:102A1000020B8DED008B61F31E0003909DED020B08
:102A2000FFF7BEBB944A24F00041914214D393496E
:102A3000214408437FF4EFAC9DED0C0B53EC102BBD
:102A40009DED020B51EC100BFDF719FE53EC1A2B08
:102A5000FDF7BAFE7FF6DFAC24F000408849894AD2
:102A6000002601EB205182422BDA481C4FF48011E2
:102A700021FA00F02044844AC0F30A517A44A1F2BA
:102A8000FF3192ED000B814A8DED080BCA4020EA20
:102A90000202C0F3130040F48010C1F1140120FAC7
:102AA00001F60992002CB8BF76429DED080B53EC5D
:102AB000102B9DED0C0B51EC100BFDF7E0FDCDE95B
:102AC0000C019DED0C0B51EC1A0B53EC102BFDF788
:102AD00035FD9FED6F0B0890CDE9085153EC102B9D
:102AE0009DED080B51EC100BFDF7ADFB41EC1B0B02
:102AF0009FED690B53EC102B9DED080B51EC100B67
:102B0000FDF7A1FB9DED0C0B41EC1C0B53EC102BC6
:102B10009DED080B51EC100BFDF7B1FD53EC1A2B9A
:102B2000FDF7B0FD9FED5E1B53EC112BFDF78BFB0A
:102B300053EC1C2BFDF702FD41EC1A0B51EC1B0B67
:102B400053EC1A2BFDF7FAFCCDE902019DED020BC7
:102B500053EC1B2B51EC100BFDF791FD53EC1A2B92
:102B6000FDF790FD9DED020B41EC1A0B53EC102B81
:102B700051EC100BFDF767FBCDE908014A489DEDCC
:102B8000080B0521784400F097F89DED081B51ECE7
:102B9000100B53EC112BFDF756FB9DED021B53EC74
:102BA000112BFDF76FFDCDE906019DED020B53ECF6
:102BB0001A2B51EC100BFDF746FB53EC1A2BFDF7CB
:102BC000BDFC9FED3B0B41EC1A0B53EC102B9DED24
:102BD000060B51EC100BFDF752FD9DED060B41EC81
:102BE0001B0B53EC102B9DED020B51EC100BFDF762
:102BF0002AFB53EC1B2BFDF748FD53EC1A2BFDF77A
:102C00003EFD9DED021B53EC112BFDF738FD53ECFF
:102C1000192BFDF737FDCDE9020101EB0650011537
:102C20000029C8BF039015DC9DED020B324651EC24
:102C3000100BFDF799FDFFF7FDF9042808BF00F020
:102C4000FBF832469DED020B51EC100BFDF78CFDAD
:102C5000CDE902019DED020B51EC180B53EC102B4A
:102C6000FDF7F1FAFFF73ABB0000904000000000CA
:102C7000FE822B654715973C00CC904000346F3F97
:102C800001FCFFFF0000E03FD0120000FFFF0F003B
:102C900000000000432EE63F396CA80C615C20BEAA
:102CA000EF39FAFE422EE63FA011000000000000BE
:102CB000000000000000004070B504462DED028BBE
:102CC0004D1E00EBC500B0EE408AF0EE608A90ED3C
:102CD000000B35F0060017D053EC182B51EC100BFD
:102CE000FDF7B1FA41EC100B6D1E04EBC50090ED41
:102CF000001B51EC100B53EC112BFDF71FFC41ECAA
:102D0000100B35F00600E7D1022D36D0042D1CD073
:102D1000062D1CBFBDEC028B70BD53EC182B51EC83
:102D2000100BFDF790FA94ED0A1B53EC112BFDF7F5
:102D300005FC53EC182BFDF786FA94ED081B53ECB9
:102D4000112BFDF7FBFB41EC100B53EC182B51EC56
:102D5000100BFDF778FA94ED061B53EC112BFDF7E1
:102D6000EDFB53EC182BFDF76EFA94ED040B53ECCE
:102D7000102BFDF7E3FB41EC100B53EC182B51EC3F
:102D8000100BFDF760FA94ED021B53EC112BFDF7CD
:102D9000D5FB53EC182BFDF756FA94ED001B53ECC2
:102DA000112BFDF7CBFBBDEC028B41EC100B70BD82
:102DB0009FED070B10B553EC102B9FED070B51EC5B
:102DC000100BFDF762FC41EC100B10BD0000000081
:102DD0000000000000000000000000000000F03FC4
:102DE00010B553EC112B51EC100BFDF7A7FB41EC88
:102DF000100B10BD000000009FED050B10B553EC4B
:102E0000102B51EC100BFDF740FC41EC100B10BDEA
:102E100000000000000000009FED050B10B553EC12
:102E2000102B51EC100BFDF70EFA41EC100B10BDFE
:102E300000000000000000709FED050B10B553EC82
:102E4000102B51EC100BFDF7FEF941EC100B10BDEF
:102E5000000000000000001002E008C8121F08C1B6
:102E6000002AFAD170477047002001E001C1121F0B
:102E7000002AFBD17047000001490860704700003C
:102E80005C0000202DE9FF5F82B00021DDE9043005
:102E9000020DDDF840B0034318D044F61050A2F202
:102EA000FF3242431514119801281FD0A5EB0B00E7
:102EB000401C5FEA000A4FF000064E4FDFF83891E1
:102EC000B046504615D5CAF1000413E0119801240C
:102ED0004AA3012801D16FEA0B010298119AC0E9B7
:102EE0000031C0E9024206B0BDE8F09FCBF100001E
:102EF000DFE704460021404A491842EB0450CDE97F
:102F0000001012E0E00707D032463B4640464946F3
:102F1000FDF799F98046894632463B4610461946E8
:102F2000FDF791F906460F466410002CEAD1DDE961
:102F30000401DDE90023BAF1000F06DAFDF783F999
:102F400042464B46FDF77FF905E0FDF79EFB424602
:102F50004B46FDF79AFB04460E460022284BFDF730
:102F600033FC03D84FF0FF30014607E00022254B29
:102F700020463146FDF7E2FAFDF70DFC102409E08A
:102F8000002C0ADB0A220023FDF71AF9039B3032DA
:102F90001A55641E50EA0102F2D1641C039AC4F16E
:102FA00011031444119A012A03D0012208430DD1C0
:102FB0000AE0084304D000204FF0110B119072E793
:102FC000A3EB0B056D1E0DE05B4504DD4FF0000229
:102FD00005F1010504E003DA4FF00002A5F1010557
:102FE000002AECD002981199C0E90231C0E90045ED
:102FF00079E70000000014400000F03F30000000BE
:103000000000F0430000E03F2DE9FF4F95B09B46E4
:103010008946064600250FE2252877D10024274659
:10302000F84A0121059400E0044316F8013F203BD3
:1030300001FA03F01042F7D130782A2811D06FF04E
:103040002F033078A0F13002092A16D8059A44F0EF
:10305000020402EB820203EB42021044761C05904C
:10306000EFE759F8042B0592002A03DA504244F4A2
:103070000054059044F00204761C30782E2816D1B6
:1030800016F8010F44F004042A280DD06FF02F0227
:103090003078A0F13003092B09D807EB870302EB46
:1030A0004303C718761CF3E759F8047B761C307885
:1030B0006C280FD006DC4C2817D068280DD06A2861
:1030C00014D104E0742810D07A280FD10DE044F414
:1030D00000140AE044F4801401E044F440147278CF
:1030E000824202D104F58014761C761C3078662862
:1030F0000BD013DC582877D009DC002875D0452880
:10310000F6D04628F4D047281AD19DE118E063286C
:1031100035D0642879D0652812D195E1702873D014
:1031200008DC6728F1D069286FD06E280DD06F2891
:1031300006D1B5E073282CD0752875D0782874D0C6
:103140005A46179990476D1C75E1C4F30250022846
:1031500009D003280DD0D9F8001004280DD00D6037
:1031600009F1040967E1D9F80010EA17C1E9005232
:10317000F6E7D9F800100D80F2E70D70F0E719F8C6
:10318000041B8DF8001000208DF80100EA46012094
:1031900003E059F804AB4FF0FF3061074FF0000136
:1031A00002D40DE008F101018846B9420FDA8045EA
:1031B000F8DB1AF808100029F4D108E008F1010141
:1031C00088468142FADB1AF808100029F6D10598E2
:1031D0005B46A0EB080721463846179A00F094FAA0
:1031E000284400EB080507E04DE029E10DE01AF85E
:1031F000010B5A4617999047B8F10108F7D25B4680
:1032000021463846179A13E142E00A220092C4F39D
:1032100002524FF0000A022A08D059F804CB032AC0
:103220004FEAEC710AD00DE029E02AE009F107012C
:1032300021F00702F2E802C1914609E00FFA8CFC86
:103240004FEAEC71042A03D14FFA8CFC4FEAEC717F
:10325000002907DA0A460021DCF1000C61EB0201CB
:103260002D2202E0220504D52B228DF80420012214
:1032700003E0E20701D02022F7E7904659E00A2157
:1032800002E010220DE010214FF0000A00910BE047
:1032900010224FF0000A44F004040827009203E0D3
:1032A00008224FF0000A0092C4F30252022A05D00D
:1032B00059F804CB0021032A08D009E009F10701DD
:1032C00021F00702F2E802C1914605E01FFA8CFCEA
:1032D000042A01D10CF0FF0C4FF00008220728D57A
:1032E000702806D0009B83F0100353EA0A0305D030
:1032F0000EE040228DF80420012208E05CEA010281
:1033000006D030228DF804208DF805000222904668
:10331000009B83F0080353EA0A030AD15CEA010226
:1033200001D1620705D530228DF804204FF0010845
:103330007F1E582804D034A003900EA802900DE000
:1033400036A0F9E753466046009AFCF739FF8446F9
:103350000398825C0298401E029002705CEA0100B1
:10336000F0D1029806A9081A00F1200A600702D5D8
:1033700024F4803400E00127574502DDA7EB0A0062
:1033800000E0002000EB0A01009005984144401A3B
:103390000590E00306D45B462146179A059800F095
:1033A000B3F90544002706E001A85A46C05D179905
:1033B00090476D1C7F1C4745F6DBE0030CD55B4650
:1033C0002146179A059800F09FF9054404E0302043
:1033D0005A46179990476D1C0099481E0090002985
:1033E000F5DC08E0029802995A460078491C0291DF
:1033F000179990476D1CBAF10001AAF1010AF1DC9E
:1034000065E10000092801003031323334353637A8
:103410003839616263646566000000003031323320
:1034200034353637383941424344454600000000C0
:1034300000F058F90544761C307800287FF4ECAD94
:1034400019B02846BDE8F08F620700D4062709F1BD
:10345000070222F0070CFCE80223E14603F00048D3
:103460005FEA080C02D00FF2702C0DE05FEA045CFA
:1034700002D50FF2682C07E05FEAC47C02D00FF29D
:10348000602C01E0AFF2700C4FF0FF3823F00043E6
:10349000CDF850C065280CD006DC452809D0462858
:1034A0001DD047283DD13DE0662818D067287ED141
:1034B00038E00021112F01DB112000E0781CCDE95C
:1034C000000106A90EA8FFF7DDFCDDE90F010E9A49
:1034D00003910021009207F1010A04914DE04FF0A1
:1034E00000400097CDE9011006A90EA8FFF7CAFC1D
:1034F000DDE90F0203920E9B11990022DDF80CA06A
:103500000093049211B9791C00EB010AB7EB0A0091
:1035100004D4C0F1FF3007F1010A0490AAEB0700C0
:10352000019044E0012F00DA01270021112F01DD75
:10353000112000E03846CDE9000106A90EA8FFF7EA
:10354000A1FCDDE90F010E9A039100210491009284
:10355000BA4621070CD40399514500DA8A46BAF1DC
:10356000010F05DD009AAAF10101515C302908D054
:10357000B84202DA10F1040F06DA0121CDE9011098
:1035800015E0AAF10101E9E7002805DC04990144EE
:103590000491AAEB000102E0411C514500DD8A467E
:1035A0000499401A401C01904FF0004002902007FF
:1035B00004D40198504501DBCDF8048000208DF83B
:1035C0004F0002980DF14F07B0F1004F25D02B208E
:1035D0000E9002984FF0020800280CDA4042029048
:1035E0002D200E9007E00A210298FCF7DEFE303114
:1035F000029007F8011DB8F10001A8F10108F2DC02
:1036000002980028EFD1791E0E980870307800F0EB
:10361000200040F0450007F8020D12A8C01B00F181
:1036200007081498007800B1012000EB0A01019806
:1036300001EBE07105984144401A401E0590E003FB
:1036400006D45B462146179A059800F05DF80544BC
:103650001498007818B15A46179990476D1CE003EA
:1036600024D55B462146179A059800F04DF805448D
:103670001CE00498002807DBDDE90301884203DD34
:103680000098405C179901E0179930205A469047FE
:10369000049805F10105401C04900198401E01901A
:1036A00004D12E205A46179990476D1CBAF100019B
:1036B000AAF1010ADDDC05E017F8010B5A4617995B
:1036C00090476D1CB8F10001A8F10108F4DC5B46DD
:1036D0002146179A0598ABE62D0000002B0000004C
:1036E000200000002DE9F041044600251E46174643
:1036F000880404D405E039462020B0476D1C641EC0
:10370000F9D52846BDE8F0812DE9F04104460025B1
:103710001E469046C80301D5302700E020278804C4
:1037200004D505E041463846B0476D1C641EF9D506
:103730002846BDE8F0810A68531C0B601070704782
:103740002DE9F04F97B034210AA8FCF771FD1D4810
:10375000006BFCF7FBFD82461A488B46C06AFCF7FB
:10376000F5FD064617480F46806AFCF7EFFD044654
:1037700014480D46C06BFCF7E9FDCDE90001114886
:10378000806BFCF7E3FD80460E488946406BFCF7F2
:10379000DDFD41EC100B04A853EC102B80E8F00C7D
:1037A000DDE90001CDE9020107A10AA8CDE9008900
:1037B000FEF72CFC0AA90EA0FEF718FC17B0BDE816
:1037C000F08F00000000002025332E32662C2533B8
:1037D0002E32662C25332E32662C25332E32662C63
:1037E00025332E32662C25332E32660A0000000067
:1037F0002573000082B0CDE9000121F00040019066
:103800009DED000B02B051EC100B704713B5642313
:10381000012269460248FDF73FFF00981CBD0000E9
:10382000CC00002010B5FEF757F900F08BF94FF4EB
:10383000FA7405E013A0FEF7D9FB2046FDF754F813
:1038400000F054F90028F5D0C820FDF74DF800220B
:103850000121022000F0CCF910B10FA0FEF7C6FB49
:103860002046FDF741F801210022084600F0C0F98A
:1038700010B109A0FEF7BAFB2046BDE81040FDF7E5
:1038800033B80000436F6E6669726D696E672049D8
:103890004D552049440D0A000A4779726F73636FD2
:1038A000706520636F6E666967757265640D0A00E6
:1038B000FDF74CFBFEF796F9FEF736F9FEF75AF9DD
:1038C0000D480C490C2201604FF4E13141600021A8
:1038D0008160C160C0E904128161C161FDF785FEAC
:1038E00000B1FEE7FFF79EFF00F0B0F8FFF728FFFA
:1038F000FAE7000000100140CC0000202DE9F04163
:103900003C4800220188B0F80D8021F40041091FD5
:1039100009B2B0F80F60B0F81150491F092901DD54
:10392000B0F81320417A0027334C05290FD03148D5
:103930000429B0F80D0000B223D0022933D00129A8
:1039400043D06078401C60700020BDE8F081A17811
:1039500010B200F053F884ED060AA1780FFA88F04F
:1039600000F04CF884ED030AA17830B200F046F87C
:1039700084ED040AA17828B200F040F884ED050A2D
:1039800034E0A17900F03AF884ED070AA17930B269
:1039900000F034F884ED080AA17928B200F02EF87E
:1039A00084ED090A22E0217A00F028F884ED0A0A61
:1039B000217A30B200F022F884ED0B0A217A28B285
:1039C00000F01CF884ED0C0A10E0217900F016F8E4
:1039D00084ED0D0A217930B200F010F884ED0E0A62
:1039E000217928B200F00AF884ED0F0A67700120EF
:1039F000ABE70000600000200000002010B500EEE2
:103A0000100A2DED048B4842B8EEC08AFCF78DFCFD
:103A100041EC110B9FED0B0BFEF726FBB0EE409A2D
:103A2000F0EE609A18EE100AFCF790FC53EC192B9C
:103A3000FCF709FCFCF79DFCBDEC048B00EE100AC2
:103A400010BD00000000000000000040F8B51B4A57
:103A50000A2700261723962102F118000097FDF788
:103A6000B7F8174C0025C8B16078401CC0B2607030
:103A7000322806D313A0FEF7B9FA2570FFF7D2FE5D
:103A80006570F8BD0D4A1723962102F118000097C2
:103A9000FDF79EF8761CF6B2042E03D8FFF72EFF32
:103AA0000028EFD06078322804D3257005A0FEF7F7
:103AB0009DFAE3E701202070F8BD000060000020BF
:103AC00000000020496D75206E6F74206176616979
:103AD0006C61626C652E20496E697469616C697AEB
:103AE000696E672E2E2E0D0A0000000038B51448AE
:103AF000F9210171002141710221084600F05AF8B4
:103B00000A20FCF7F1FE642406E00221084600F0DA
:103B100051F80A20FCF7E8FE094A1723AC3A96212F
:103B200002F118000094FDF753F80028EDD1044885
:103B3000AC380079F82801D0002038BD012038BD0C
:103B40000C010020F8B516A0FEF750FA1749012025
:103B50000871014600F02EF8144DAC3D64260EE0CD
:103B600000242046295C09B9641CE4B2401CC0B2A0
:103B70001728F7D30EA0FEF739FA172C0AD00B4AF4
:103B80001723AC3A962102F118000096FDF720F8B1
:103B90000028E5D0BDE8F84001A0FEF727BA0000F4
:103BA000526573657420494D550D0A000C010020C3
:103BB0002E00000038B5091DCBB20B4900220B4C7A
:103BC0000B704A708870225CCA70521C22546420A8
:103BD0000A4600909621A2F19400FDF7EDF808B195
:103BE000002038BD012038BD0C010020400000201D
:103BF0004FF47A73594330B40F4BFD241C71587144
:103C000000209871D871187259720C0A9C720C0CB1
:103C1000DC72090E197358739873D87318745A7438
:103C2000100A9874100CD874100E1875112130BC3D
:103C30000220FFF7BFBF00000C01002000B52DEDF2
:103C4000048B83B041EC190BFCF7FAFD41EC180B27
:103C500018EE100A18EE901A8DED008B002818BF90
:103C60000120084320F00040C0F17F6000F1E040F7
:103C7000C00F14D019EE101A19EE900A8DED009BAA
:103C8000002918BF0121084320F00040C0F17F60E7
:103C900000F1E040C00F04BF0120FFF7EDF851EC48
:103CA000180B03B0BDEC048B00BD00000000000049
:103CB00000000102030406070809000000000102D9
:103CC0000304000000000000000000000000F03FBE
:103CD000000000000000F83F0000000000000000AD
:103CE0000000004003B8E23F0000000000000000B8
:103CF00006D0CF43EBFD4C3E033333333333E33F46
:103D0000FFAB6FDBB66DDB3F4D268F515555D53F71
:103D100001411DA96074D13F65DBC9934A86CD3F3F
:103D2000EF4E454A287ECA3F3E5555555555C53F2D
:103D300093BDBE166CC166BF2CDE25AF6A56113F1F
:103D4000F16BD2C541BDBBBED0A4BE726937663E21
:103D50000000000000000000783D00080000002086
:103D600060000000582E0008D83D000860000020C8
:103D700030050000682E000800000E000800080052
:103D8000090000000000000000000000000000002A
:103D90000000000000000000000000000000000023
:103DA0000000000000000000000000000000000013
:103DB0000000000000000000000000000000000003
:103DC0000100000010000000000000000024F400CA
:083DD0000000000000000000EB
:040000050800018965
:00000001FF
